:100000000C9441010C942B060C9404060C94690189
:100010000C9469010C9469010C9469010C946901B8
:100020000C9469010C9469010C9469010C946901A8
:100030000C9469010C9469010C9469010C94690198
:100040000C94BA050C9469010C9488050C94620513
:100050000C9469010C9469010C9469010C94690178
:100060000C9469010C94690100000000250028002F
:100070002B0000000008000201000003040700003C
:1000800000000000000000000000240027002A00FB
:10009000010204081020408001020408102001021F
:1000A00004081020040404040404040402020202EC
:1000B00002020303030303030702010001C9C38013
:1000C000081341412120674B000811000400520031
:1000D00018301011200C0003000702710005C9C37D
:1000E000800000051120010C461011200C1C80001E
:1000F000B0100CE8004E068DB9000E11200A280041
:1001000002C0080012C6D4015C0F11200B39111176
:10011000801A200000280CA4230D1120094503009B
:10012000850100FF0609100611200250940A0611ED
:100130002002540307091120055B400404782010B5
:1001400011210C007E641BBA580BDDCED6E6F600FA
:100150001011210C0C030315F03F007E641BBA58EC
:100160000B0F11210B18DDCED6E6F600030315F0B8
:100170003F05112201031D0C114008003709000042
:10018000444420FE0832000000000000000517561D
:1001900010CAF005171310CAF0081101040007185F
:1001A000000007110203000A0900051110010431C3
:1001B0000811110401B42B00000E11120A000401F1
:1001C00008FFFF2000002A010B1112070E0106AAEA
:1001D0000080022A0E11200A031E848009C9C380F0
:1001E000000DA70F11200B1E102000E8004B06D3B6
:1001F000A006D40D1120092A00000023C6D400A9AE
:10020000E009112005391010801A400C1120084611
:100210000115020080060218051120015084051105
:1002200020015404051120015D081011210C00A2C9
:100230008126AF3FEEC8C7DBF202081011210C0C7B
:10024000070315FC0F00A28126AF3FEE0F11210B13
:1002500018C8C7DBF20208070315FC0F0A112306B2
:100260000034040B0407700811400400380DDDDD74
:1002700029002028007C002530336868753A20006A
:100280000D0811241FBECFEFD8E0DEBFCDBF11E0B7
:10029000A0E0B1E0EAE8F6E102C005900D92AC31D1
:1002A000B107D9F721E0ACE1B1E001C01D92AA3C51
:1002B000B207E1F711E0C1E4D1E004C02197FE01EB
:1002C0000E943D0BC034D107C9F70E9452060C941E
:1002D000430B0C940000AF92BF92CF92DF92EF924B
:1002E000FF920F931F93CF93DF936C017B018B01E0
:1002F000040F151FEB015E01AE18BF08C017D10730
:1003000059F06991D601ED91FC910190F081E02DB9
:10031000C6010995892B79F7C501DF91CF911F910E
:100320000F91FF90EF90DF90CF90BF90AF90089526
:10033000FC01538D448D252F30E0842F90E0821BEB
:10034000930B541710F0CF96089501970895FC0170
:10035000918D828D981761F0A28DAE0FBF2FB11DC8
:100360005D968C91928D9F5F9F73928F90E0089520
:100370008FEF9FEF0895FC01918D828D981731F0DA
:10038000828DE80FF11D858D90E008958FEF9FEF2E
:100390000895FC01918D228D892F90E0805C9F4F04
:1003A000821B91098F73992708958CE291E00E9436
:1003B000C90121E0892B09F420E0822F089580E013
:1003C00090E0892B29F00E94D50181110C94000046
:1003D0000895FC01A48DA80FB92FB11DA35ABF4FDA
:1003E0002C91848D90E001968F739927848FA68934
:1003F000B7892C93A089B1898C91837080648C9388
:10040000938D848D981306C00288F389E02D808136
:100410008F7D80830895EF92FF920F931F93CF9368
:10042000DF93EC0181E0888F9B8D8C8D98131AC02F
:10043000E889F989808185FF15C09FB7F894EE8916
:10044000FF896083E889F989808183708064808373
:100450009FBF81E090E0DF91CF911F910F91FF90BE
:10046000EF900895F62E0B8D10E00F5F1F4F0F7366
:100470001127E02E8C8D8E110CC00FB607FCFACF21
:10048000E889F989808185FFF5CFCE010E94E901D5
:10049000F1CFEB8DEC0FFD2FF11DE35AFF4FF082F2
:1004A0009FB7F8940B8FEA89FB8980818062CFCF58
:1004B0000F931F93CF93DF938C01D0E0C0E0F8013E
:1004C000EC0FFD1F6491662341F08CE291E00E94E5
:1004D0000B02892B11F02196F2CFCE01DF91CF9143
:1004E0001F910F910895CF93DF93EC01888D88239E
:1004F000B9F0AA89BB89E889F9898C9185FD03C087
:10050000808186FD0DC00FB607FCF7CF8C9185FF6B
:10051000F2CF808185FFEDCFCE010E94E901E9CFC6
:10052000DF91CF91089590E0FC01EE58FF4F2491A8
:10053000FC01E057FF4F3491FC01EC55FF4FE49173
:10054000EE23C9F0222339F0233001F1A8F4213041
:1005500019F1223029F1F0E0EE0FFF1FE859FF4FAB
:10056000A591B4918FB7F894EC91611126C03095A4
:100570003E233C938FBF08952730A9F02830C9F05F
:10058000243049F7809180008F7D03C080918000E6
:100590008F7780938000DFCF84B58F7784BDDBCFEA
:1005A00084B58F7DFBCF8091B0008F778093B000B2
:1005B000D2CF8091B0008F7DF9CF3E2BDACFCF9391
:1005C000DF9390E0FC01E057FF4F24918C559F4F43
:1005D000FC0184918823D1F090E0880F991FFC01E1
:1005E000EA57FF4FA591B491FC01E859FF4FC5911F
:1005F000D491623071F49FB7F8943C91822F80952A
:1006000083238C93E8812E2B28839FBFDF91CF918A
:1006100008958FB7F894EC912E2B2C938FBFF6CFC3
:100620003FB7F8948091230190912401A091250176
:10063000B091260126B5A89B05C02F3F19F0019661
:10064000A11DB11D3FBFBA2FA92F982F8827BC012C
:10065000CD01620F711D811D911D42E0660F771F54
:10066000881F991F4A95D1F708958F929F92AF9254
:10067000BF92CF92DF92EF92FF924B015C010E94FA
:1006800010036B017C010E9410036C197D098E0917
:100690009F09683E734081059105A8F321E0821A05
:1006A0009108A108B10888EEC80E83E0D81EE11CAD
:1006B000F11C81149104A104B10429F7FF90EF907B
:1006C000DF90CF90BF90AF909F908F900895089546
:1006D00080911D0181110EC080911C01882329F099
:1006E00080911C01815080931C0180911C0181111B
:1006F00001C0789480E0089580911D01811106C0A9
:10070000F89480911C018F5F80931C0181E0089513
:100710008EBD00000DB407FEFDCF8EB50895CF93BA
:10072000DF93D82F0E947C03C0E0882391F060E023
:100730008AE00E9493028D2F0E9488038FEF0E940F
:100740008803C82F61E08AE00E9493020E94680338
:10075000ECCF8C2FDF91CF91089581E50E948F031C
:10076000853039F0863039F0843009F483E090E048
:10077000089587E0FCCF88E0FACF80E50E948F03E0
:1007800086958658990B08958F929F92AF92BF924B
:10079000CF92DF92EF92FF920F931F93CF93DF934D
:1007A0005C01D42F00E41CE97C01E60EF11C83E21D
:1007B000882E912C0E947C03C0E0882301F160E028
:1007C0008AE00E94930284E40E9488038FEF0E94D3
:1007D0008803C1E08F3F41F0C0E061E08AE00E9401
:1007E00093020E946803E9CF6501CE14DF04A9F3E8
:1007F0008FEF0E948803F60181936F01F6CFC1113C
:1008000008C0C4010197F1F7DD23A1F201501109DD
:1008100089F68C2FDF91CF911F910F91FF90EF9070
:10082000DF90CF90BF90AF909F908F900895809170
:10083000C901882329F08091C90181508093C901A1
:100840008091C90181110DC081EF94E09093010165
:1008500080930001809169008C7F826080936900A1
:10086000E89A0895BF92CF92DF92EF92FF920F9392
:100870001F93CF93DF93EC01062F6A01B22EE89805
:1008800087E693E090930101809300018091C90174
:100890008F5F8093C90141E060E090E080E00E94BA
:1008A000C403882329F10E947C030C0F1D2F111D06
:1008B0008823A9F060E08AE00E9493027E010E1571
:1008C0001F0531F0F70181917F010E948803F7CF66
:1008D00061E08AE00E9493020E946803E9CF888168
:1008E000873191F440E060E090E080E00E94C40332
:1008F0000E941704DF91CF911F910F91FF90EF900D
:10090000DF90CF90BF900895C114D10489F341E0E6
:100910006B2DC601EBCFCF93DF9300D0CDB7DEB701
:1009200094E399838A8320E050E040E062E0CE01C6
:1009300001960E9432040F900F90DF91CF9108959D
:100940001F93CF93DF93CDB7DEB728970FB6F894F8
:10095000DEBF0FBECDBF182FE89887E693E09093D7
:100960000101809300018091C9018F5F8093C901CB
:1009700083E090E00E948B0420E050E040E062E0E1
:1009800084E091E00E94320480E289831A821B8213
:100990008FEF8C8328E050E040E064E0CE010196C8
:1009A0000E9432041B821C821D821E8282E3898384
:1009B00083E08F8381E088871A8320E050E040E065
:1009C00068E0CE0101960E9432040E941704289626
:1009D0000FB6F894DEBF0FBECDBFDF91CF911F9150
:1009E0000895CF93DF93CDB7DEB729970FB6F8946C
:1009F000DEBF0FBECDBF81E080931D0180E28987FD
:100A000028E0AE014F5F5F4F61E0CE0109960E9482
:100A10003204909128018B8189238B838091290155
:100A20009D8189238D8320912A019F8192239F8319
:100A300080FD0E94BD038B8184FF1BC00E947C034C
:100A4000882389F060E08AE00E94930287E70E9491
:100A500088038FEF0E94880361E08AE00E9493027E
:100A60000E946803EDCF0E94BD0380912B010E947C
:100A7000A0048B8183FF0EC00E94AD03029721F476
:100A800083E090E00E948B040E94BD0380912B01C3
:100A90000E94A00410921D0129960FB6F894DEBFA3
:100AA0000FBECDBFDF91CF910895FC0101900020D2
:100AB000E9F73197AF01481B590BBC018CE291E07B
:100AC0000C946B011F920F920FB60F9211242F936B
:100AD0003F934F935F936F937F938F939F93AF93C6
:100AE000BF93EF93FF938CE291E00E94E901FF91A5
:100AF000EF91BF91AF919F918F917F916F915F9196
:100B00004F913F912F910F900FBE0F901F9018950E
:100B10001F920F920FB60F9211242F938F939F93D2
:100B2000EF93FF93E0913C01F0913D018081E091D2
:100B30004201F091430182FD1BC0908180914501EB
:100B40008F5F8F7320914601821741F0E09145013C
:100B5000F0E0E45DFE4F958F80934501FF91EF91AA
:100B60009F918F912F910F900FBE0F901F9018950E
:100B70008081F4CF1F920F920FB60F9211242F9302
:100B80003F938F939F93AF93BF9380911F01909159
:100B90002001A0912101B091220130911E0123E09A
:100BA000230F2D3758F50196A11DB11D20931E016D
:100BB00080931F0190932001A0932101B093220103
:100BC0008091230190912401A0912501B0912601EB
:100BD0000196A11DB11D8093230190932401A09340
:100BE0002501B0932601BF91AF919F918F913F91C5
:100BF0002F910F900FBE0F901F90189526E8230F8E
:100C00000296A11DB11DD2CF1F920F920FB60F9267
:100C100011242F933F934F935F936F937F938F9301
:100C20009F93AF93BF93EF93FF93E0910201F091F5
:100C300003010995FF91EF91BF91AF919F918F9122
:100C40007F916F915F914F913F912F910F900FBEC8
:100C50000F901F9018951F920F920FB60F921124AC
:100C60002F933F934F935F936F937F938F939F93B4
:100C7000AF93BF93EF93FF93E0910001F0910101D7
:100C80000995FF91EF91BF91AF919F918F917F91C6
:100C90006F915F914F913F912F910F900FBE0F90E9
:100CA0001F901895CF93DF93CDB7DEB7A7970FB6F8
:100CB000F894DEBF0FBECDBF789484B5826084BD4A
:100CC00084B5816084BD85B5826085BD85B5816050
:100CD00085BD80916E00816080936E0010928100CE
:100CE0008091810082608093810080918100816089
:100CF000809381008091800081608093800080914A
:100D0000B10084608093B1008091B00081608093D5
:100D1000B00080917A00846080937A0080917A009C
:100D2000826080937A0080917A00816080937A005B
:100D300080917A00806880937A001092C100E091DF
:100D40003C01F0913D0182E08083E0913801F09117
:100D500039011082E0913A01F0913B0180E18083FA
:100D600010924401E0914001F091410186E08083BE
:100D7000E0913E01F0913F01808180618083E091AC
:100D80003E01F0913F01808188608083E0913E01C7
:100D9000F0913F01808180688083E0913E01F09175
:100DA0003F0180818F7D808361E08AE00E94930211
:100DB00061E08AE00E94DF0261E085E00E94DF02DC
:100DC00062E082E00E94DF021FB7F8948091270161
:100DD000811127C0EEEAF0E08491EAE9F0E0949115
:100DE000E82FF0E0EE0FFF1FEA57FF4FA591B491F7
:100DF000EC91E92321F461E08AE00E94930261E032
:100E00008AE00E94DF028CB580618CBD8CB5806465
:100E10008CBD61E08DE00E94DF0261E08BE00E940A
:100E2000DF02809127018F5F809327011FBF61E060
:100E300085E00E94930262E370E080E090E00E940F
:100E4000350360E085E00E94930262E370E080E099
:100E500090E00E94350310E000E0B80168547F4F35
:100E600041E150E0CE0101960E943A0820E050E0B6
:100E700040E06981CE0102960E943204898190E0AF
:100E80000196080F191F083B81E0180730F380E234
:100E9000898328E050E040E061E0CE0101960E94A5
:100EA00032040E94AD03079721F081E090E00E9498
:100EB0008B0488E1809328010E94170427E7222EE3
:100EC00022E0322E6E0192E2C90ED11C3AE0432E8E
:100ED000512C612C712C40E0842E40E0942E8091A6
:100EE0002B010E94A00498E0E92E97E0F92E09E179
:100EF0001CEF61E070E080E090E00E9435031B820F
:100F0000A2E2A983BFEFBA8323E0AE014F5F5F4F38
:100F100062E0CA010E9432048B8186958658990B43
:100F2000081719070CF48C01E1E0EE1AF10809F733
:100F30007801F2E8EF0EF11CF7FE03C083E0E80E43
:100F4000F11CF594E794F594E79480912B011F929E
:100F50008F933F922F92DF92CF920E944308C60157
:100F60000E9455050F900F900F900F900F900F90CB
:100F7000B12CA12CEA14FB0441F085E792E00E9419
:100F800058029FEFA91AB90AF5CF82E792E00E94B2
:100F900058026DE28CE291E00E940B02012E000CDF
:100FA000220B330BD901C80122273327A901281BA3
:100FB000390B4A0B5B0B19A27E0191E2E90EF11C81
:100FC000CA01B901A30192010E941B0B605DD70108
:100FD0006E937D01211531054105510589F7109763
:100FE00019F0CD010E94550580E792E00E94580259
:100FF00088E191E00E94550580912B018F5F8093DD
:101000002B018114910409F46ACF0E94D501882331
:1010100009F465CF0E94000062CFECE2F1E0138298
:10102000128288EE93E0A0E0B0E084839583A683EB
:10103000B7838AE091E09183808385EC90E0958787
:10104000848784EC90E09787868780EC90E0918B92
:10105000808B81EC90E0938B828B82EC90E0958B7F
:10106000848B86EC90E0978B868B118E128E138E7C
:10107000148E0895FB01DC0102C005900D924150D1
:101080005040D8F70895AEE0B0E0E9E4F8E00C9401
:10109000F20A0D891E898EE08C831A8309838FEFF3
:1010A0009FE79E838D83AE01475E5F4F6F89788D8A
:1010B000CE0101960E9466082F813885020F131F0A
:1010C000F80110822E96E4E00C940E0BABE0B0E039
:1010D000ECE6F8E00C94E40A7C013B018A01FC0197
:1010E00017821682838181FFC8C1CE0101965C01FF
:1010F000F7019381F30193FD859193FF81913F0166
:10110000882309F453C1853239F493FD859193FF07
:1011100081913F01853229F4B70190E00E94560A7F
:10112000E7CF912C212C312CFFE1F31538F08B32D5
:1011300011F190F4803209F1833229F137FC3CC07F
:1011400020ED280F2A3050F536FE20C08AE0989E08
:10115000200D1124922E06C08D3291F0803371F74C
:10116000689430F8F30193FD859193FF81913F01DD
:101170008111DACF21C0689431F8689432F8F2CF47
:10118000689433F8EFCF689434F8ECCFEAE02E9E01
:10119000200D1124222E689435F8E4CF8E3229F4E4
:1011A00036FC04C1689436F8DDCF8C3619F46894A7
:1011B00037F8D8CF8836B1F2982F9F7D9554933069
:1011C000E0F08336A1F18337C1F1833509F063C0C4
:1011D0002801F2E04F0E511CF801C080D180692D2A
:1011E00070E036FC02C06FEF7FEFC6010E94400A3C
:1011F0004C01689437F882010AC00C5F1F4FFFE36F
:10120000F98388248394912C6501E89437F833FEA0
:101210002DC0522C8114910471F5552009F468CF2A
:10122000B70180E290E00E94560A5A94F6CFF80186
:10123000808189830E5F1F4FE4CF2801F2E04F0EBB
:10124000511CF801C080D180692D70E036FC02C0CD
:101250006FEF7FEFC6010E944B0A4C018201D5CF90
:10126000B70180E290E00E94560A2A9428141904DB
:1012700009F0B0F7CECFF60137FC859137FE8191AA
:101280006F01B70190E00E94560A51105A94F1E0A4
:101290008F1A9108BFCF843619F0893609F077C0CC
:1012A000F80137FE6BC060817181828193810C5F90
:1012B0001F4FF32DFF763F2E97FF09C09095809525
:1012C000709561957F4F8F4F9F4F689437F82AE054
:1012D00030E0A5010E94860AC82ECA188C2C432C27
:1012E00036FE0CC0E89440F8C91440F434FE05C042
:1012F00032FC03C0F32DFE7E4F2E892C44FE95C098
:10130000FE01EC0DF11D8081803309F087C0242D92
:10131000297E422E842D8870582E43FC95C040FEB5
:101320008FC09C2C821418F42C0C922C981844FE1C
:1013300091C0B70180E390E00E94560A42FE09C0C6
:1013400088E790E041FE02C088E590E0B7010E9486
:10135000560AC91408F48AC0CA94D12C9FEFC91A3E
:10136000D90ACA0CDB1CF60182916F01B70190E02B
:101370000E94560AAC14BD04B1F74FCF6081718151
:10138000072E000C880B990B0E5F1F4F92CFD32CAA
:10139000E894D4F82AE030E0853739F1232D297F0D
:1013A000D22E8F3601F148F48835A9F0F7018681F5
:1013B00097812B96E2E10C94000B803749F0883737
:1013C000A9F7D4FE02C06894D2F820E130E00DC045
:1013D0006894D4F8F6CF34FE03C0822F8660D82EEE
:1013E00020E132E002C028E030E0F801D7FE0FC073
:1013F00060817181828193810C5F1F4FA5010E94E2
:10140000860AC82ECA183D2CE89437F867CF608149
:10141000718190E080E00E5F1F4FF0CF42FC02C070
:10142000839478CF8394839475CF842D867809F440
:1014300071CFF6CFB70180E290E00E94560A839404
:101440008214C0F3512C73CF522C5818821408F414
:101450006ECFF8CF842D867809F47BCF8BE241FEE6
:1014600080E247FC8DE2B70190E071CFB70180E3E5
:1014700090E00E94560A9A946CCF8FEF9FEF99CF1D
:10148000FC010590615070400110D8F7809590954F
:101490008E0F9F1F0895FC01615070400190011054
:1014A000D8F7809590958E0F9F1F08950F931F93E7
:1014B000CF93DF93182F092FEB018B8181FD09C09A
:1014C0001FEF0FEF812F902FDF91CF911F910F9181
:1014D000089582FF14C02E813F818C819D81281741
:1014E00039073CF4E881F981CF010196998388831B
:1014F00010838E819F8101969F838E83E3CFE88541
:10150000F985812F0995892BA1F3DACFFA01AA2752
:10151000283051F1203181F1E8946F936E7F6E5F36
:101520007F4F8F4F9F4FAF4FB1E03ED0B4E03CD0E4
:10153000670F781F891F9A1FA11D680F791F8A1FC7
:10154000911DA11D6A0F711D811D911DA11D20D02E
:1015500009F468943F912AE0269F11243019305DE8
:101560003193DEF6CF010895462F4770405D4193D9
:10157000B3E00FD0C9F7F6CF462F4F70405D4A3326
:1015800018F0495D31FD4052419302D0A9F7EACFEE
:10159000B4E0A6959795879577956795BA95C9F71D
:1015A00000976105710508959B01AC010A2E069410
:1015B0005795479537952795BA95C9F7620F731FC9
:1015C000841F951FA01D08952F923F924F925F9206
:1015D0006F927F928F929F92AF92BF92CF92DF9243
:1015E000EF92FF920F931F93CF93DF93CDB7DEB7A8
:1015F000CA1BDB0B0FB6F894DEBF0FBECDBF09943C
:101600002A88398848885F846E847D848C849B8492
:10161000AA84B984C884DF80EE80FD800C811B81A0
:10162000AA81B981CE0FD11D0FB6F894DEBF0FBECF
:10163000CDBFED010895A1E21A2EAA1BBB1BFD012F
:101640000DC0AA1FBB1FEE1FFF1FA217B307E407A1
:10165000F50720F0A21BB30BE40BF50B661F771FF9
:10166000881F991F1A9469F76095709580959095D9
:101670009B01AC01BD01CF010895EE0FFF1F059046
:0A168000F491E02D0994F894FFCFD7
:10168A00670367031503000000000B026B01980152
:0C169A007302C901A701BB010D0A00008A
:00000001FF
